{
  "_format": "hh-sol-artifact-1",
  "contractName": "DynamicAssetAMM",
  "sourceName": "contracts/DynamicAssetAMM.sol",
  "abi": [
    {
      "inputs": [
        {
          "internalType": "address",
          "name": "_dynAsset",
          "type": "address"
        },
        {
          "internalType": "address",
          "name": "_stableCoin",
          "type": "address"
        },
        {
          "internalType": "address",
          "name": "initialOwner",
          "type": "address"
        }
      ],
      "stateMutability": "nonpayable",
      "type": "constructor"
    },
    {
      "inputs": [
        {
          "internalType": "address",
          "name": "owner",
          "type": "address"
        }
      ],
      "name": "OwnableInvalidOwner",
      "type": "error"
    },
    {
      "inputs": [
        {
          "internalType": "address",
          "name": "account",
          "type": "address"
        }
      ],
      "name": "OwnableUnauthorizedAccount",
      "type": "error"
    },
    {
      "anonymous": false,
      "inputs": [
        {
          "indexed": true,
          "internalType": "address",
          "name": "provider",
          "type": "address"
        },
        {
          "indexed": false,
          "internalType": "uint256",
          "name": "assetAmount",
          "type": "uint256"
        },
        {
          "indexed": false,
          "internalType": "uint256",
          "name": "stableAmount",
          "type": "uint256"
        },
        {
          "indexed": false,
          "internalType": "uint256",
          "name": "newKLast",
          "type": "uint256"
        }
      ],
      "name": "LiquidityAdded",
      "type": "event"
    },
    {
      "anonymous": false,
      "inputs": [
        {
          "indexed": true,
          "internalType": "address",
          "name": "previousOwner",
          "type": "address"
        },
        {
          "indexed": true,
          "internalType": "address",
          "name": "newOwner",
          "type": "address"
        }
      ],
      "name": "OwnershipTransferred",
      "type": "event"
    },
    {
      "anonymous": false,
      "inputs": [
        {
          "indexed": true,
          "internalType": "address",
          "name": "entity",
          "type": "address"
        },
        {
          "indexed": false,
          "internalType": "uint256",
          "name": "entityId",
          "type": "uint256"
        },
        {
          "indexed": false,
          "internalType": "uint256",
          "name": "assetIn",
          "type": "uint256"
        },
        {
          "indexed": false,
          "internalType": "uint256",
          "name": "stableOut",
          "type": "uint256"
        },
        {
          "indexed": false,
          "internalType": "uint256",
          "name": "newPrice",
          "type": "uint256"
        }
      ],
      "name": "PanicSell",
      "type": "event"
    },
    {
      "anonymous": false,
      "inputs": [
        {
          "indexed": true,
          "internalType": "address",
          "name": "trader",
          "type": "address"
        },
        {
          "indexed": false,
          "internalType": "uint256",
          "name": "assetIn",
          "type": "uint256"
        },
        {
          "indexed": false,
          "internalType": "uint256",
          "name": "stableOut",
          "type": "uint256"
        },
        {
          "indexed": false,
          "internalType": "uint256",
          "name": "newPrice",
          "type": "uint256"
        },
        {
          "indexed": false,
          "internalType": "uint256",
          "name": "kInvariant",
          "type": "uint256"
        }
      ],
      "name": "SwapAssetForStable",
      "type": "event"
    },
    {
      "inputs": [],
      "name": "DECIMALS",
      "outputs": [
        {
          "internalType": "uint256",
          "name": "",
          "type": "uint256"
        }
      ],
      "stateMutability": "view",
      "type": "function"
    },
    {
      "inputs": [
        {
          "internalType": "uint256",
          "name": "assetAmount",
          "type": "uint256"
        },
        {
          "internalType": "uint256",
          "name": "stableAmount",
          "type": "uint256"
        }
      ],
      "name": "addLiquidity",
      "outputs": [],
      "stateMutability": "nonpayable",
      "type": "function"
    },
    {
      "inputs": [],
      "name": "drain",
      "outputs": [],
      "stateMutability": "nonpayable",
      "type": "function"
    },
    {
      "inputs": [],
      "name": "dynAsset",
      "outputs": [
        {
          "internalType": "contract DynAssetToken",
          "name": "",
          "type": "address"
        }
      ],
      "stateMutability": "view",
      "type": "function"
    },
    {
      "inputs": [],
      "name": "kLast",
      "outputs": [
        {
          "internalType": "uint256",
          "name": "",
          "type": "uint256"
        }
      ],
      "stateMutability": "view",
      "type": "function"
    },
    {
      "inputs": [],
      "name": "owner",
      "outputs": [
        {
          "internalType": "address",
          "name": "",
          "type": "address"
        }
      ],
      "stateMutability": "view",
      "type": "function"
    },
    {
      "inputs": [
        {
          "internalType": "uint256",
          "name": "entityId",
          "type": "uint256"
        },
        {
          "internalType": "uint256",
          "name": "assetIn",
          "type": "uint256"
        }
      ],
      "name": "panicSell",
      "outputs": [
        {
          "internalType": "uint256",
          "name": "stableOut",
          "type": "uint256"
        }
      ],
      "stateMutability": "nonpayable",
      "type": "function"
    },
    {
      "inputs": [
        {
          "internalType": "uint256",
          "name": "assetIn",
          "type": "uint256"
        }
      ],
      "name": "quoteAssetForStable",
      "outputs": [
        {
          "internalType": "uint256",
          "name": "stableOut",
          "type": "uint256"
        }
      ],
      "stateMutability": "view",
      "type": "function"
    },
    {
      "inputs": [],
      "name": "renounceOwnership",
      "outputs": [],
      "stateMutability": "nonpayable",
      "type": "function"
    },
    {
      "inputs": [],
      "name": "reserveAsset",
      "outputs": [
        {
          "internalType": "uint256",
          "name": "",
          "type": "uint256"
        }
      ],
      "stateMutability": "view",
      "type": "function"
    },
    {
      "inputs": [],
      "name": "reserveStable",
      "outputs": [
        {
          "internalType": "uint256",
          "name": "",
          "type": "uint256"
        }
      ],
      "stateMutability": "view",
      "type": "function"
    },
    {
      "inputs": [],
      "name": "spotPrice",
      "outputs": [
        {
          "internalType": "uint256",
          "name": "",
          "type": "uint256"
        }
      ],
      "stateMutability": "view",
      "type": "function"
    },
    {
      "inputs": [],
      "name": "stableCoin",
      "outputs": [
        {
          "internalType": "contract StableCoin",
          "name": "",
          "type": "address"
        }
      ],
      "stateMutability": "view",
      "type": "function"
    },
    {
      "inputs": [
        {
          "internalType": "uint256",
          "name": "assetIn",
          "type": "uint256"
        }
      ],
      "name": "swapAssetForStable",
      "outputs": [
        {
          "internalType": "uint256",
          "name": "stableOut",
          "type": "uint256"
        }
      ],
      "stateMutability": "nonpayable",
      "type": "function"
    },
    {
      "inputs": [
        {
          "internalType": "address",
          "name": "newOwner",
          "type": "address"
        }
      ],
      "name": "transferOwnership",
      "outputs": [],
      "stateMutability": "nonpayable",
      "type": "function"
    }
  ],
  "bytecode": "0x60c060405234801561001057600080fd5b5060405161108738038061108783398101604081905261002f916100ec565b806001600160a01b03811661005e57604051631e4fbdf760e01b81526000600482015260240160405180910390fd5b61006781610080565b50506001600160a01b039182166080521660a05261012f565b600080546001600160a01b038381166001600160a01b0319831681178455604051919092169283917f8be0079c531659141344cd1fd0a4f28419497f9722a3daafe3b4186f6b6457e09190a35050565b80516001600160a01b03811681146100e757600080fd5b919050565b60008060006060848603121561010157600080fd5b61010a846100d0565b9250610118602085016100d0565b9150610126604085016100d0565b90509250925092565b60805160a051610eed61019a60003960008181610198015281816104a001528181610669015281816107980152818161095f0152610bb20152600081816101d201528181610407015281816105d3015281816106de015281816108cb0152610b190152610eed6000f3fe608060405234801561001057600080fd5b50600436106100f55760003560e01c80638da5cb5b11610097578063a1f04c0211610066578063a1f04c02146101cd578063cdb6e2e2146101f4578063f2fde38b14610207578063f85cb5c81461021a57600080fd5b80638da5cb5b146101665780639890220b1461018b578063992642e5146101935780639cd441da146101ba57600080fd5b8063715018a6116100d3578063715018a6146101375780637464fc3d146101415780637eb2486b1461014a5780638d341c0c1461015d57600080fd5b80632e0f2625146100fa578063398482d81461011c5780633d09683d14610124575b600080fd5b610109670de0b6b3a764000081565b6040519081526020015b60405180910390f35b610109610223565b610109610132366004610d72565b61025d565b61013f6102f1565b005b61010960035481565b610109610158366004610d72565b610305565b61010960025481565b6000546001600160a01b03165b6040516001600160a01b039091168152602001610113565b61013f6105b3565b6101737f000000000000000000000000000000000000000000000000000000000000000081565b61013f6101c8366004610d8b565b61085d565b6101737f000000000000000000000000000000000000000000000000000000000000000081565b610109610202366004610d8b565b610a69565b61013f610215366004610dad565b610cb7565b61010960015481565b60006001546000036102355750600090565b600154670de0b6b3a764000060025461024e9190610df3565b6102589190610e10565b905090565b600080600154116102a75760405162461bcd60e51b815260206004820152600f60248201526e1053534e88195b5c1d1e481c1bdbdb608a1b60448201526064015b60405180910390fd5b6000826001546102b79190610e32565b90506000816003546102c99190610e10565b905080600254116102db5760006102e9565b806002546102e99190610e45565b949350505050565b6102f9610cf5565b6103036000610d22565b565b60008082116103485760405162461bcd60e51b815260206004820152600f60248201526e1053534e881e995c9bc81a5b9c1d5d608a1b604482015260640161029e565b60006001541161039a5760405162461bcd60e51b815260206004820152601960248201527f414d4d3a20706f6f6c206e6f7420696e697469616c6973656400000000000000604482015260640161029e565b6103a38261025d565b9050600081116103f05760405162461bcd60e51b81526020600482015260186024820152771053534e881a5b9cdd59999a58da595b9d081bdd5d1c1d5d60421b604482015260640161029e565b6040516323b872dd60e01b81526001600160a01b037f000000000000000000000000000000000000000000000000000000000000000016906323b872dd9061044090339030908790600401610e58565b6020604051808303816000875af115801561045f573d6000803e3d6000fd5b505050506040513d601f19601f820116820180604052508101906104839190610e7c565b5060405163a9059cbb60e01b8152336004820152602481018290527f00000000000000000000000000000000000000000000000000000000000000006001600160a01b03169063a9059cbb906044016020604051808303816000875af11580156104f1573d6000803e3d6000fd5b505050506040513d601f19601f820116820180604052508101906105159190610e7c565b5081600160008282546105289190610e32565b9250508190555080600260008282546105419190610e45565b9091555060009050610551610223565b9050337fff8a96a8bbc5d7fdcdd967b1d1405c92b7dfb90980779337518b2cb92b15ff398484610587655af3107a400086610e10565b60035460408051948552602085019390935291830152606082015260800160405180910390a250919050565b6105bb610cf5565b6040516370a0823160e01b81523060048201526000907f00000000000000000000000000000000000000000000000000000000000000006001600160a01b0316906370a0823190602401602060405180830381865afa158015610622573d6000803e3d6000fd5b505050506040513d601f19601f820116820180604052508101906106469190610e9e565b6040516370a0823160e01b81523060048201529091506000906001600160a01b037f000000000000000000000000000000000000000000000000000000000000000016906370a0823190602401602060405180830381865afa1580156106b0573d6000803e3d6000fd5b505050506040513d601f19601f820116820180604052508101906106d49190610e9e565b90508115610790577f00000000000000000000000000000000000000000000000000000000000000006001600160a01b031663a9059cbb61071d6000546001600160a01b031690565b6040516001600160e01b031960e084901b1681526001600160a01b039091166004820152602481018590526044016020604051808303816000875af115801561076a573d6000803e3d6000fd5b505050506040513d601f19601f8201168201806040525081019061078e9190610e7c565b505b801561084a577f00000000000000000000000000000000000000000000000000000000000000006001600160a01b031663a9059cbb6107d76000546001600160a01b031690565b6040516001600160e01b031960e084901b1681526001600160a01b039091166004820152602481018490526044016020604051808303816000875af1158015610824573d6000803e3d6000fd5b505050506040513d601f19601f820116820180604052508101906108489190610e7c565b505b5050600060018190556002819055600355565b610865610cf5565b6000821180156108755750600081115b6108b45760405162461bcd60e51b815260206004820152601060248201526f1053534e881e995c9bc8185b5bdd5b9d60821b604482015260640161029e565b6040516323b872dd60e01b81526001600160a01b037f000000000000000000000000000000000000000000000000000000000000000016906323b872dd9061090490339030908790600401610e58565b6020604051808303816000875af1158015610923573d6000803e3d6000fd5b505050506040513d601f19601f820116820180604052508101906109479190610e7c565b506040516323b872dd60e01b81526001600160a01b037f000000000000000000000000000000000000000000000000000000000000000016906323b872dd9061099890339030908690600401610e58565b6020604051808303816000875af11580156109b7573d6000803e3d6000fd5b505050506040513d601f19601f820116820180604052508101906109db9190610e7c565b5081600160008282546109ee9190610e32565b925050819055508060026000828254610a079190610e32565b9091555050600254600154610a1c9190610df3565b600381905560408051848152602081018490529081019190915233907f64b83944e79c3ce8d4c297411de637c3e102d064677aac0c163976ebdcd6f50e9060600160405180910390a25050565b6000808211610aac5760405162461bcd60e51b815260206004820152600f60248201526e1053534e881e995c9bc81a5b9c1d5d608a1b604482015260640161029e565b610ab58261025d565b905060008111610b025760405162461bcd60e51b81526020600482015260186024820152771053534e881a5b9cdd59999a58da595b9d081bdd5d1c1d5d60421b604482015260640161029e565b6040516323b872dd60e01b81526001600160a01b037f000000000000000000000000000000000000000000000000000000000000000016906323b872dd90610b5290339030908790600401610e58565b6020604051808303816000875af1158015610b71573d6000803e3d6000fd5b505050506040513d601f19601f82011682018060405250810190610b959190610e7c565b5060405163a9059cbb60e01b8152336004820152602481018290527f00000000000000000000000000000000000000000000000000000000000000006001600160a01b03169063a9059cbb906044016020604051808303816000875af1158015610c03573d6000803e3d6000fd5b505050506040513d601f19601f82011682018060405250810190610c279190610e7c565b508160016000828254610c3a9190610e32565b925050819055508060026000828254610c539190610e45565b9091555060009050610c63610223565b60408051868152602081018690529081018490526060810182905290915033907f582fe33aebe1b98bc95be6d87c8ad3742ca7e94ed16c3eb2dba554fe10b002949060800160405180910390a25092915050565b610cbf610cf5565b6001600160a01b038116610ce957604051631e4fbdf760e01b81526000600482015260240161029e565b610cf281610d22565b50565b6000546001600160a01b031633146103035760405163118cdaa760e01b815233600482015260240161029e565b600080546001600160a01b038381166001600160a01b0319831681178455604051919092169283917f8be0079c531659141344cd1fd0a4f28419497f9722a3daafe3b4186f6b6457e09190a35050565b600060208284031215610d8457600080fd5b5035919050565b60008060408385031215610d9e57600080fd5b50508035926020909101359150565b600060208284031215610dbf57600080fd5b81356001600160a01b0381168114610dd657600080fd5b9392505050565b634e487b7160e01b600052601160045260246000fd5b8082028115828204841417610e0a57610e0a610ddd565b92915050565b600082610e2d57634e487b7160e01b600052601260045260246000fd5b500490565b80820180821115610e0a57610e0a610ddd565b81810381811115610e0a57610e0a610ddd565b6001600160a01b039384168152919092166020820152604081019190915260600190565b600060208284031215610e8e57600080fd5b81518015158114610dd657600080fd5b600060208284031215610eb057600080fd5b505191905056fea26469706673582212204734f5525997aeb6c9558a8eba7a5f8071de4d6e0f5c4b4bd844a1cf427d973564736f6c63430008180033",
  "linkReferences": {},
  "deployedLinkReferences": {}
}